:020000040000FA
:0600000076EF00F0120093
:020006000000F8
:06000800FEEF01F0120002
:02000E00060EDC
:10001000F66E000EF76E000EF86E00010900F55046
:10002000936F0900F550946F03E1936701D03DD0C1
:100030000900F5508E6F0900F5508F6F0900F550DB
:10004000906F09000900F550E96E0900F550EA6E5D
:10005000090009000900F550916F0900F550926FF1
:1000600009000900F6CF95F0F7CF96F0F8CF97F09A
:100070008EC0F6FF8FC0F7FF90C0F8FF00019153CC
:1000800002E1925307E00900F550EE6E9107F8E2A5
:100090009207F9D795C0F6FF96C0F7FF97C0F8FF13
:0C00A00000019307000E945BBFD7120014
:0400AC00FF0EE35010
:1000B000046E480E01D04C0EE76EE72EFED7E76ABD
:0C00C000E72EFED7042EF7D70000120038
:0400CC00800EF36E41
:1000D00000EE00F00F0E01D81200EA6002D0EE6AC6
:0C00E000FCD7F350E9601200EE6AFCD778
:0400EC001EEE00F014
:1000F0002EEE00F0F86A019C07EC00F084EC00F0B2
:08010000CBEC00F0FBD712006C
:020108001200E3
:100180003F065B4F666D7D077F671F1C1F1E1F1E8E
:060190001F1F1E1F1E1FB1
:0A0196000001806B816B8D6B936A92
:1001A0000F0EC16E040E926E896A898089928986CB
:1001B000800EF66E010EF76E0800F5508A6E898487
:1001C000800EF66E010EF76E0800F5508B6E0DD99D
:1001D000F28CF28E80B403D013D83AD8FBD700014A
:1001E0008C6B8C5114080AE3320EE66E56EC00F06C
:1001F000E55280A403D000018C2BF3D7EBD712007B
:10020000D9CFE6FFE1CFD9FF020EE126DE6ADD6A33
:10021000DECF02F0DDCF03F0D890035004E6050EE8
:10022000025C000E03580AE2C80EE66E56EC00F0BF
:10023000E552DF2A010E01E3DB2AEAD7020EE15C78
:1002400002E2E16AE552E16EE552E7CFD9FF120022
:10025000090E0001805D03E1806B03D801D0802B83
:100260001200050E0001815D03E1816B0CD801D005
:10027000812B1200050E0001835D03E1836B0CD816
:1002800001D0832B1200090E0001825D03E1826B15
:10029000F1DF01D0822B1200020E0001855D09E121
:1002A000030E845D04E1846B856B0BD801D0842B35
:1002B00007D0090E845D03E1846B852B01D0842B6C
:1002C0001200D9CFE6FFE1CFD9FF020EE1266DD8AB
:1002D000F3CFF6FFF4CFF7FF8A0EF626010EF722D2
:1002E0000800F550DE6EDD6A40D8F3CF02F0F4CF9F
:1002F00003F0DF50021803E1DE52DD50031806E17F
:100300000001010E866F876B0DD802D00001862B8D
:10031000020EE15C02E2E16AE552E16EE552E7CFEE
:10032000D9FF120042D8F3CF02F0F4CF03F00C0E45
:10033000021801E103500DE10001880502E0000E02
:1003400001D0010E895102E0000E01D0010E04D847
:1003500002D00001882B1200090E00018A5D03E122
:100360008A6B8B2B01D08A2B1200D9CFE6FFE1CF0D
:10037000D9FF020EE1260A0E00018703F3508625FD
:10038000DE6EDD6ADECF02F0DDCF03F002C0F3FFE8
:1003900003C0F4FF020EE15C03E200D0E16AE55223
:1003A000E16EE552E7CFD9FF1200D9CFE6FFE1CFEA
:1003B000D9FF020EE1260A0E00018903F3508825B9
:1003C000DE6EDD6ADECF02F0DDCF03F002C0F3FFA8
:1003D00003C0F4FF020EE15C03E200D0E16AE552E3
:1003E000E16EE552E7CFD9FF1200F294F28A470E90
:1003F000D56ED76A800ED66ED58E1200DACFE4FFA6
:10040000E2CFDAFFF6CFE4FFF7CFE4FFF5CFE4FF6A
:10041000E652F2A415D0F29489A00DD08990000183
:100420008051F76A800FF66E010EF7220800F55032
:100430008A6E898202D089928980D76AFA0ED66E36
:10044000E552E5CFF5FFE5CFF7FFE5CFF6FFE5CFC6
:04045000DAFF1100BE
:020000040030CA
:0100010001FD
:010003001EDE
:010005008377
:010006008178
:00000001FF
