:020000040000FA
:0600000076EF00F0120093
:020006000000F8
:0600080033EF02F01200CC
:02000E00060EDC
:10001000F66E000EF76E000EF86E00010900F55046
:10002000976F0900F550986F03E1976701D03DD0B5
:100030000900F550926F0900F550936F0900F550D3
:10004000946F09000900F550E96E0900F550EA6E59
:10005000090009000900F550956F0900F550966FE9
:1000600009000900F6CF99F0F7CF9AF0F8CF9BF08E
:1000700092C0F6FF93C0F7FF94C0F8FF00019553BC
:1000800002E1965307E00900F550EE6E9507F8E29D
:100090009607F9D799C0F6FF9AC0F7FF9BC0F8FF03
:0C00A00000019707000E985BBFD712000C
:0400AC00FF0EE35010
:1000B000046E480E01D04C0EE76EE72EFED7E76ABD
:0C00C000E72EFED7042EF7D70000120038
:0400CC00800EF36E41
:1000D00000EE00F00F0E01D81200EA6002D0EE6AC6
:0C00E000FCD7F350E9601200EE6AFCD778
:0400EC001EEE00F014
:1000F0002EEE00F0F86A019C07EC00F084EC00F0B2
:08010000CBEC00F0FBD712006C
:020108001200E3
:100180003F065B4F666D7D077F671F1C1F1E1F1E8E
:060190001F1F1E1F1E1FB1
:0A0196000001806B816B916B936A8E
:1001A0000F0EC16E040E926E896A8F6B906B898000
:1001B00089928986800EF66E010EF76E0800F55062
:1001C0008A6E48D9F28CF28E0001906B80B403D015
:1001D0004CD873D8FBD7809400018C6B8C511408D9
:1001E0000CE3640EE66E56EC00F0E55280B402D0EB
:1001F000809403D000018C2BF1D7150E00018C5D8B
:1002000032E1010E8F6F00018F052DE180A4FED732
:1002100080A423D000018D6B8D51026E036A0334DC
:1002200004E20250C808000E03540AE3140EE66EFE
:1002300056EC00F0E55280A403D000018D2BECD7E2
:1002400000018D51026E036AC90E021801E10350CC
:1002500001E18F6B0AD83AD8DBD7C80EE66E56ECB0
:1002600000F0E552D0D7B0D71200D9CFE6FFE1CFEA
:10027000D9FF020EE126DE6ADD6ADECF02F0DDCFB5
:1002800003F0D890035004E6050E025C000E0358FC
:100290000AE2C80EE66E56EC00F0E552DF2A010EC7
:1002A00001E3DB2AEAD7020EE15C02E2E16AE552F1
:1002B000E16EE552E7CFD9FF1200090E0001805D23
:1002C00003E1806B03D801D0802B1200050E0001E2
:1002D000815D03E1816B0CD801D0812B1200050EEA
:1002E0000001835D03E1836B0CD801D0832B1200E6
:1002F000090E0001825D03E1826BF1DF01D0822BE8
:100300001200020E0001855D09E1030E845D04E127
:10031000846B856B0BD801D0842B07D0090E845DCC
:1003200003E1846B852B01D0842B1200D9CFE6FF2B
:10033000E1CFD9FF020EE1266DD8F3CFF6FFF4CF5F
:10034000F7FF8A0EF626010EF7220800F550DE6E42
:10035000DD6A40D8F3CF02F0F4CF03F0DF5002188B
:1003600003E1DE52DD50031806E10001010E866F45
:10037000876B0DD802D00001862B020EE15C02E2F1
:10038000E16AE552E16EE552E7CFD9FF120042D8AB
:10039000F3CF02F0F4CF03F00C0E021801E103508A
:1003A0000DE10001880502E0000E01D0010E895127
:1003B00002E0000E01D0010E04D802D00001882B0B
:1003C0001200090E00018A5D03E18A6B8B2B01D0BC
:1003D0008A2B1200D9CFE6FFE1CFD9FF020EE1262A
:1003E0000A0E00018703F3508625DE6EDD6ADECF3C
:1003F00002F0DDCF03F002C0F3FF03C0F4FF020EF2
:10040000E15C03E200D0E16AE552E16EE552E7CF3C
:10041000D9FF1200D9CFE6FFE1CFD9FF020EE126C6
:100420000A0E00018903F3508825DE6EDD6ADECFF7
:1004300002F0DDCF03F002C0F3FF03C0F4FF020EB1
:10044000E15C03E200D0E16AE552E16EE552E7CFFC
:10045000D9FF1200F294F28A470ED56ED76A800E49
:10046000D66ED58E1200DACFE4FFE2CFDAFFF6CFF8
:10047000E4FFF7CFE4FFF5CFE4FFE652F2A41FD08C
:10048000F29489A00DD0899000018151F76A800F04
:10049000F66E010EF7220800F5508A6E89820CD0A4
:1004A000899200018051F76A800FF66E010EF722E3
:1004B0000800F5508A6E8980D76AE10ED66EE55243
:1004C000E5CFF5FFE5CFF7FFE5CFF6FFE5CFDAFFA4
:0204D000110019
:020000040030CA
:0100010001FD
:010003001EDE
:010005008377
:010006008178
:00000001FF
